{
  "_format": "hh-sol-artifact-1",
  "contractName": "TokenExchange",
  "sourceName": "contracts/exchange.sol",
  "abi": [
    {
      "inputs": [],
      "stateMutability": "nonpayable",
      "type": "constructor"
    },
    {
      "anonymous": false,
      "inputs": [
        {
          "indexed": true,
          "internalType": "address",
          "name": "previousOwner",
          "type": "address"
        },
        {
          "indexed": true,
          "internalType": "address",
          "name": "newOwner",
          "type": "address"
        }
      ],
      "name": "OwnershipTransferred",
      "type": "event"
    },
    {
      "inputs": [
        {
          "internalType": "uint256",
          "name": "max_exchange_rate",
          "type": "uint256"
        },
        {
          "internalType": "uint256",
          "name": "min_exchange_rate",
          "type": "uint256"
        }
      ],
      "name": "addLiquidity",
      "outputs": [],
      "stateMutability": "payable",
      "type": "function"
    },
    {
      "inputs": [
        {
          "internalType": "uint256",
          "name": "amountTokens",
          "type": "uint256"
        }
      ],
      "name": "createPool",
      "outputs": [],
      "stateMutability": "payable",
      "type": "function"
    },
    {
      "inputs": [],
      "name": "exchange_name",
      "outputs": [
        {
          "internalType": "string",
          "name": "",
          "type": "string"
        }
      ],
      "stateMutability": "view",
      "type": "function"
    },
    {
      "inputs": [],
      "name": "getReserves",
      "outputs": [
        {
          "internalType": "uint256",
          "name": "",
          "type": "uint256"
        },
        {
          "internalType": "uint256",
          "name": "",
          "type": "uint256"
        }
      ],
      "stateMutability": "view",
      "type": "function"
    },
    {
      "inputs": [],
      "name": "getSwapFee",
      "outputs": [
        {
          "internalType": "uint256",
          "name": "",
          "type": "uint256"
        },
        {
          "internalType": "uint256",
          "name": "",
          "type": "uint256"
        }
      ],
      "stateMutability": "view",
      "type": "function"
    },
    {
      "inputs": [],
      "name": "owner",
      "outputs": [
        {
          "internalType": "address",
          "name": "",
          "type": "address"
        }
      ],
      "stateMutability": "view",
      "type": "function"
    },
    {
      "inputs": [
        {
          "internalType": "uint256",
          "name": "max_exchange_rate",
          "type": "uint256"
        },
        {
          "internalType": "uint256",
          "name": "min_exchange_rate",
          "type": "uint256"
        }
      ],
      "name": "removeAllLiquidity",
      "outputs": [],
      "stateMutability": "payable",
      "type": "function"
    },
    {
      "inputs": [
        {
          "internalType": "uint256",
          "name": "amountETH",
          "type": "uint256"
        },
        {
          "internalType": "uint256",
          "name": "max_exchange_rate",
          "type": "uint256"
        },
        {
          "internalType": "uint256",
          "name": "min_exchange_rate",
          "type": "uint256"
        }
      ],
      "name": "removeLiquidity",
      "outputs": [],
      "stateMutability": "payable",
      "type": "function"
    },
    {
      "inputs": [],
      "name": "renounceOwnership",
      "outputs": [],
      "stateMutability": "nonpayable",
      "type": "function"
    },
    {
      "inputs": [
        {
          "internalType": "uint256",
          "name": "max_exchange_rate",
          "type": "uint256"
        }
      ],
      "name": "swapETHForTokens",
      "outputs": [],
      "stateMutability": "payable",
      "type": "function"
    },
    {
      "inputs": [
        {
          "internalType": "uint256",
          "name": "amountTokens",
          "type": "uint256"
        },
        {
          "internalType": "uint256",
          "name": "max_exchange_rate",
          "type": "uint256"
        }
      ],
      "name": "swapTokensForETH",
      "outputs": [],
      "stateMutability": "payable",
      "type": "function"
    },
    {
      "inputs": [],
      "name": "token",
      "outputs": [
        {
          "internalType": "contract Token",
          "name": "",
          "type": "address"
        }
      ],
      "stateMutability": "view",
      "type": "function"
    },
    {
      "inputs": [
        {
          "internalType": "address",
          "name": "newOwner",
          "type": "address"
        }
      ],
      "name": "transferOwnership",
      "outputs": [],
      "stateMutability": "nonpayable",
      "type": "function"
    }
  ],
  "bytecode": "0x60806040526040518060400160405280600e81526020017f546974616e5f45786368616e6765000000000000000000000000000000000000815250600190816200004a9190620004a7565b50735fbdb2315678afecb367f032d93f642f64180aa3600260006101000a81548173ffffffffffffffffffffffffffffffffffffffff021916908373ffffffffffffffffffffffffffffffffffffffff160217905550600260009054906101000a900473ffffffffffffffffffffffffffffffffffffffff16600360006101000a81548173ffffffffffffffffffffffffffffffffffffffff021916908373ffffffffffffffffffffffffffffffffffffffff16021790555060006004556000600555600060065560006007556000600a556003600b556064600c55620186a0600e553480156200013a57600080fd5b506200015b6200014f6200016160201b60201c565b6200016960201b60201c565b6200058e565b600033905090565b60008060009054906101000a900473ffffffffffffffffffffffffffffffffffffffff169050816000806101000a81548173ffffffffffffffffffffffffffffffffffffffff021916908373ffffffffffffffffffffffffffffffffffffffff1602179055508173ffffffffffffffffffffffffffffffffffffffff168173ffffffffffffffffffffffffffffffffffffffff167f8be0079c531659141344cd1fd0a4f28419497f9722a3daafe3b4186f6b6457e060405160405180910390a35050565b600081519050919050565b7f4e487b7100000000000000000000000000000000000000000000000000000000600052604160045260246000fd5b7f4e487b7100000000000000000000000000000000000000000000000000000000600052602260045260246000fd5b60006002820490506001821680620002af57607f821691505b602082108103620002c557620002c462000267565b5b50919050565b60008190508160005260206000209050919050565b60006020601f8301049050919050565b600082821b905092915050565b6000600883026200032f7fffffffffffffffffffffffffffffffffffffffffffffffffffffffffffffffff82620002f0565b6200033b8683620002f0565b95508019841693508086168417925050509392505050565b6000819050919050565b6000819050919050565b600062000388620003826200037c8462000353565b6200035d565b62000353565b9050919050565b6000819050919050565b620003a48362000367565b620003bc620003b3826200038f565b848454620002fd565b825550505050565b600090565b620003d3620003c4565b620003e081848462000399565b505050565b5b818110156200040857620003fc600082620003c9565b600181019050620003e6565b5050565b601f82111562000457576200042181620002cb565b6200042c84620002e0565b810160208510156200043c578190505b620004546200044b85620002e0565b830182620003e5565b50505b505050565b600082821c905092915050565b60006200047c600019846008026200045c565b1980831691505092915050565b600062000497838362000469565b9150826002028217905092915050565b620004b2826200022d565b67ffffffffffffffff811115620004ce57620004cd62000238565b5b620004da825462000296565b620004e78282856200040c565b600060209050601f8311600181146200051f57600084156200050a578287015190505b62000516858262000489565b86555062000586565b601f1984166200052f86620002cb565b60005b82811015620005595784890151825560018201915060208501945060208101905062000532565b8683101562000579578489015162000575601f89168262000469565b8355505b6001600288020188555050505b505050505050565b613711806200059e6000396000f3fe6080604052600436106100c25760003560e01c80638da5cb5b1161007f578063d4cadf6811610059578063d4cadf68146101dd578063f2fde38b14610209578063f694f7d114610232578063fc0c546a1461025d576100c2565b80638da5cb5b1461017a5780639cd441da146101a5578063a22280a6146101c1576100c2565b80630902f1ac146100c75780632eab2841146100f357806358ad6de41461010f578063715018a61461012b5780638259e6a014610142578063857620e11461015e575b600080fd5b3480156100d357600080fd5b506100dc610288565b6040516100ea9291906124a5565b60405180910390f35b61010d600480360381019061010891906124ff565b610299565b005b6101296004803603810190610124919061252c565b6106bf565b005b34801561013757600080fd5b50610140610b9a565b005b61015c600480360381019061015791906124ff565b610bae565b005b6101786004803603810190610173919061256c565b610f5e565b005b34801561018657600080fd5b5061018f6115cf565b60405161019c9190612600565b60405180910390f35b6101bf60048036038101906101ba919061252c565b6115f8565b005b6101db60048036038101906101d6919061252c565b611b64565b005b3480156101e957600080fd5b506101f2611fd1565b6040516102009291906124a5565b60405180910390f35b34801561021557600080fd5b50610230600480360381019061022b9190612647565b611fe2565b005b34801561023e57600080fd5b50610247612065565b6040516102549190612704565b60405180910390f35b34801561026957600080fd5b506102726120f3565b60405161027f9190612785565b60405180910390f35b600080600554600454915091509091565b600034116102dc576040517f08c379a00000000000000000000000000000000000000000000000000000000081526004016102d390612812565b60405180910390fd5b60003490506000600c54600b54836102f49190612861565b6102fe91906128d2565b90506000818361030e9190612903565b905081600760008282546103229190612937565b92505081905550600060055411801561033d57506000600454115b61037c576040517f08c379a0000000000000000000000000000000000000000000000000000000008152600401610373906129dd565b60405180910390fd5b60006005548261038c9190612937565b6004548361039a9190612861565b6103a491906128d2565b90506000600454670de0b6b3a7640000600e546005546103c49190612861565b6103ce91906128d2565b6103d891906128d2565b90508581111561041d576040517f08c379a000000000000000000000000000000000000000000000000000000000815260040161041490612a49565b60405180910390fd5b61045c6040518060400160405280601681526020017f43757272656e742045786368616e676520526174653a0000000000000000000081525082612119565b61049b6040518060400160405280601281526020017f4d61782045786368616e676520526174653a000000000000000000000000000081525087612119565b8160045410156104e0576040517f08c379a00000000000000000000000000000000000000000000000000000000081526004016104d790612ab5565b60405180910390fd5b6105216040518060400160405280600d81526020017f6574685f72657365727665733a00000000000000000000000000000000000000815250600554612119565b6105626040518060400160405280600f81526020017f746f6b656e5f72657365727665733a0000000000000000000000000000000000815250600454612119565b84600560008282546105749190612937565b92505081905550816004600082825461058d9190612903565b925050819055506105d56040518060400160405280600d81526020017f6574685f72657365727665733a00000000000000000000000000000000000000815250600554612119565b6106166040518060400160405280600f81526020017f746f6b656e5f72657365727665733a0000000000000000000000000000000000815250600454612119565b600360009054906101000a900473ffffffffffffffffffffffffffffffffffffffff1673ffffffffffffffffffffffffffffffffffffffff1663a9059cbb33846040518363ffffffff1660e01b8152600401610673929190612ad5565b6020604051808303816000875af1158015610692573d6000803e3d6000fd5b505050506040513d601f19601f820116820180604052508101906106b69190612b36565b50505050505050565b6000600860003373ffffffffffffffffffffffffffffffffffffffff1673ffffffffffffffffffffffffffffffffffffffff1681526020019081526020016000205490506107426040518060400160405280600b81526020017f757365725368617265733a00000000000000000000000000000000000000000081525082612119565b60008111610785576040517f08c379a000000000000000000000000000000000000000000000000000000000815260040161077c90612baf565b60405180910390fd5b6000600a54600554836107989190612861565b6107a291906128d2565b90506000600a54600454846107b79190612861565b6107c191906128d2565b90508160055411610807576040517f08c379a00000000000000000000000000000000000000000000000000000000081526004016107fe90612c1b565b60405180910390fd5b806004541161084b576040517f08c379a000000000000000000000000000000000000000000000000000000000815260040161084290612c87565b60405180910390fd5b6000600454670de0b6b3a7640000600e546005546108699190612861565b61087391906128d2565b61087d91906128d2565b9050858111156108c2576040517f08c379a00000000000000000000000000000000000000000000000000000000081526004016108b990612a49565b60405180910390fd5b84811015610905576040517f08c379a00000000000000000000000000000000000000000000000000000000081526004016108fc90612cf3565b60405180910390fd5b6000600a54600754866109189190612861565b61092291906128d2565b90506000600a54600654876109379190612861565b61094191906128d2565b90506000600860003373ffffffffffffffffffffffffffffffffffffffff1673ffffffffffffffffffffffffffffffffffffffff1681526020019081526020016000208190555085600a600082825461099a9190612903565b9250508190555081600760008282546109b39190612903565b9250508190555080600660008282546109cc9190612903565b9250508190555060005b600980549050811015610a75573373ffffffffffffffffffffffffffffffffffffffff1660098281548110610a0e57610a0d612d13565b5b9060005260206000200160009054906101000a900473ffffffffffffffffffffffffffffffffffffffff1673ffffffffffffffffffffffffffffffffffffffff1603610a6257610a5d816121b5565b610a75565b8080610a6d90612d42565b9150506109d6565b508460056000828254610a889190612903565b925050819055508360046000828254610aa19190612903565b925050819055503373ffffffffffffffffffffffffffffffffffffffff166108fc869081150290604051600060405180830381858888f19350505050158015610aee573d6000803e3d6000fd5b50600360009054906101000a900473ffffffffffffffffffffffffffffffffffffffff1673ffffffffffffffffffffffffffffffffffffffff1663a9059cbb33866040518363ffffffff1660e01b8152600401610b4c929190612ad5565b6020604051808303816000875af1158015610b6b573d6000803e3d6000fd5b505050506040513d601f19601f82011682018060405250810190610b8f9190612b36565b505050505050505050565b610ba26122f2565b610bac6000612370565b565b610bb66122f2565b600060045414610bfb576040517f08c379a0000000000000000000000000000000000000000000000000000000008152600401610bf290612dd6565b60405180910390fd5b600060055414610c40576040517f08c379a0000000000000000000000000000000000000000000000000000000008152600401610c3790612e42565b60405180910390fd5b60003411610c83576040517f08c379a0000000000000000000000000000000000000000000000000000000008152600401610c7a90612eae565b60405180910390fd5b6000600360009054906101000a900473ffffffffffffffffffffffffffffffffffffffff1673ffffffffffffffffffffffffffffffffffffffff166370a08231336040518263ffffffff1660e01b8152600401610ce09190612600565b602060405180830381865afa158015610cfd573d6000803e3d6000fd5b505050506040513d601f19601f82011682018060405250810190610d219190612ee3565b905080821115610d66576040517f08c379a0000000000000000000000000000000000000000000000000000000008152600401610d5d90612f82565b60405180910390fd5b60008211610da9576040517f08c379a0000000000000000000000000000000000000000000000000000000008152600401610da090612fee565b60405180910390fd5b600360009054906101000a900473ffffffffffffffffffffffffffffffffffffffff1673ffffffffffffffffffffffffffffffffffffffff166323b872dd3330856040518463ffffffff1660e01b8152600401610e089392919061300e565b6020604051808303816000875af1158015610e27573d6000803e3d6000fd5b505050506040513d601f19601f82011682018060405250810190610e4b9190612b36565b50600360009054906101000a900473ffffffffffffffffffffffffffffffffffffffff1673ffffffffffffffffffffffffffffffffffffffff166370a08231306040518263ffffffff1660e01b8152600401610ea79190612600565b602060405180830381865afa158015610ec4573d6000803e3d6000fd5b505050506040513d601f19601f82011682018060405250810190610ee89190612ee3565b60048190555034600581905550600554600454610f059190612861565b600d81905550620186a0600a819055506064600860003373ffffffffffffffffffffffffffffffffffffffff1673ffffffffffffffffffffffffffffffffffffffff168152602001908152602001600020819055505050565b6000600860003373ffffffffffffffffffffffffffffffffffffffff1673ffffffffffffffffffffffffffffffffffffffff16815260200190815260200160002054905060008111610fe5576040517f08c379a0000000000000000000000000000000000000000000000000000000008152600401610fdc90612baf565b60405180910390fd5b6000600a5460055483610ff89190612861565b61100291906128d2565b905080851115611047576040517f08c379a000000000000000000000000000000000000000000000000000000000815260040161103e906130b7565b60405180910390fd5b6000600554600a548761105a9190612861565b61106491906128d2565b9050600081116110a9576040517f08c379a00000000000000000000000000000000000000000000000000000000081526004016110a090613123565b60405180910390fd5b6000600a54600454836110bc9190612861565b6110c691906128d2565b90506000876005546110d89190612903565b11611118576040517f08c379a000000000000000000000000000000000000000000000000000000000815260040161110f9061318f565b60405180910390fd5b6000816004546111289190612903565b11611168576040517f08c379a000000000000000000000000000000000000000000000000000000000815260040161115f906131fb565b60405180910390fd5b6000600454670de0b6b3a7640000600e546005546111869190612861565b61119091906128d2565b61119a91906128d2565b90506111db6040518060400160405280601681526020017f43757272656e742045786368616e676520526174653a0000000000000000000081525082612119565b61121a6040518060400160405280601281526020017f4d61782045786368616e676520526174653a000000000000000000000000000081525088612119565b6112596040518060400160405280601281526020017f4d696e2045786368616e676520526174653a000000000000000000000000000081525087612119565b8681111561129c576040517f08c379a000000000000000000000000000000000000000000000000000000000815260040161129390613267565b60405180910390fd5b858110156112df576040517f08c379a00000000000000000000000000000000000000000000000000000000081526004016112d6906132d3565b60405180910390fd5b6000600a54600754856112f29190612861565b6112fc91906128d2565b90506000600a54600654866113119190612861565b61131b91906128d2565b905084600860003373ffffffffffffffffffffffffffffffffffffffff1673ffffffffffffffffffffffffffffffffffffffff168152602001908152602001600020600082825461136c9190612903565b9250508190555084600a60008282546113859190612903565b92505081905550816007600082825461139e9190612903565b9250508190555080600660008282546113b79190612903565b925050819055506000600860003373ffffffffffffffffffffffffffffffffffffffff1673ffffffffffffffffffffffffffffffffffffffff16815260200190815260200160002054036114a95760005b6009805490508110156114a7573373ffffffffffffffffffffffffffffffffffffffff16600982815481106114405761143f612d13565b5b9060005260206000200160009054906101000a900473ffffffffffffffffffffffffffffffffffffffff1673ffffffffffffffffffffffffffffffffffffffff16036114945761148f816121b5565b6114a7565b808061149f90612d42565b915050611408565b505b89600560008282546114bb9190612903565b9250508190555083600460008282546114d49190612903565b925050819055503373ffffffffffffffffffffffffffffffffffffffff166108fc8b9081150290604051600060405180830381858888f19350505050158015611521573d6000803e3d6000fd5b50600360009054906101000a900473ffffffffffffffffffffffffffffffffffffffff1673ffffffffffffffffffffffffffffffffffffffff1663a9059cbb33866040518363ffffffff1660e01b815260040161157f929190612ad5565b6020604051808303816000875af115801561159e573d6000803e3d6000fd5b505050506040513d601f19601f820116820180604052508101906115c29190612b36565b5050505050505050505050565b60008060009054906101000a900473ffffffffffffffffffffffffffffffffffffffff16905090565b600034905060008111611640576040517f08c379a000000000000000000000000000000000000000000000000000000000815260040161163790612812565b60405180910390fd5b600060055411801561165457506000600454115b611693576040517f08c379a000000000000000000000000000000000000000000000000000000000815260040161168a906129dd565b60405180910390fd5b6000600554600454836116a69190612861565b6116b091906128d2565b905080600360009054906101000a900473ffffffffffffffffffffffffffffffffffffffff1673ffffffffffffffffffffffffffffffffffffffff166370a08231336040518263ffffffff1660e01b815260040161170e9190612600565b602060405180830381865afa15801561172b573d6000803e3d6000fd5b505050506040513d601f19601f8201168201806040525081019061174f9190612ee3565b1015611790576040517f08c379a00000000000000000000000000000000000000000000000000000000081526004016117879061333f565b60405180910390fd5b6000600454670de0b6b3a7640000600e546005546117ae9190612861565b6117b891906128d2565b6117c291906128d2565b90506118056040518060400160405280600d81526020017f6574685f72657365727665733a00000000000000000000000000000000000000815250600554612119565b6118466040518060400160405280600f81526020017f746f6b656e5f72657365727665733a0000000000000000000000000000000000815250600454612119565b6118856040518060400160405280601681526020017f43757272656e742045786368616e676520526174653a0000000000000000000081525082612119565b848111156118c8576040517f08c379a00000000000000000000000000000000000000000000000000000000081526004016118bf90613267565b60405180910390fd5b8381101561190b576040517f08c379a0000000000000000000000000000000000000000000000000000000008152600401611902906132d3565b60405180910390fd5b6000600554600a548561191e9190612861565b61192891906128d2565b90506000811161196d576040517f08c379a0000000000000000000000000000000000000000000000000000000008152600401611964906133ab565b60405180910390fd5b6000600860003373ffffffffffffffffffffffffffffffffffffffff1673ffffffffffffffffffffffffffffffffffffffff1681526020019081526020016000205403611a18576009339080600181540180825580915050600190039060005260206000200160009091909190916101000a81548173ffffffffffffffffffffffffffffffffffffffff021916908373ffffffffffffffffffffffffffffffffffffffff1602179055505b80600860003373ffffffffffffffffffffffffffffffffffffffff1673ffffffffffffffffffffffffffffffffffffffff1681526020019081526020016000206000828254611a679190612937565b9250508190555080600a6000828254611a809190612937565b925050819055508360056000828254611a999190612937565b925050819055508260046000828254611ab29190612937565b92505081905550600360009054906101000a900473ffffffffffffffffffffffffffffffffffffffff1673ffffffffffffffffffffffffffffffffffffffff166323b872dd3330866040518463ffffffff1660e01b8152600401611b189392919061300e565b6020604051808303816000875af1158015611b37573d6000803e3d6000fd5b505050506040513d601f19601f82011682018060405250810190611b5b9190612b36565b50505050505050565b60008211611ba7576040517f08c379a0000000000000000000000000000000000000000000000000000000008152600401611b9e9061343d565b60405180910390fd5b81600360009054906101000a900473ffffffffffffffffffffffffffffffffffffffff1673ffffffffffffffffffffffffffffffffffffffff166370a08231336040518263ffffffff1660e01b8152600401611c039190612600565b602060405180830381865afa158015611c20573d6000803e3d6000fd5b505050506040513d601f19601f82011682018060405250810190611c449190612ee3565b1015611c85576040517f08c379a0000000000000000000000000000000000000000000000000000000008152600401611c7c9061333f565b60405180910390fd5b600360009054906101000a900473ffffffffffffffffffffffffffffffffffffffff1673ffffffffffffffffffffffffffffffffffffffff166323b872dd3330856040518463ffffffff1660e01b8152600401611ce49392919061300e565b6020604051808303816000875af1158015611d03573d6000803e3d6000fd5b505050506040513d601f19601f82011682018060405250810190611d279190612b36565b506000600c54600b5484611d3b9190612861565b611d4591906128d2565b905060008184611d559190612903565b90508160066000828254611d699190612937565b92505081905550600081600454611d809190612937565b82600554611d8e9190612861565b611d9891906128d2565b90506000600554670de0b6b3a7640000600e54600454611db89190612861565b611dc291906128d2565b611dcc91906128d2565b9050611e0d6040518060400160405280601281526020017f4d61782045786368616e676520526174653a000000000000000000000000000081525086612119565b84811115611e50576040517f08c379a0000000000000000000000000000000000000000000000000000000008152600401611e4790612a49565b60405180910390fd5b8160056000828254611e629190612903565b925050819055508560046000828254611e7b9190612937565b92505081905550611ec36040518060400160405280600d81526020017f6574685f72657365727665733a00000000000000000000000000000000000000815250600554612119565b611f026040518060400160405280600a81526020017f616d6f756e744554483a0000000000000000000000000000000000000000000081525083612119565b611f416040518060400160405280600d81526020017f6665655f72657365727665733a0000000000000000000000000000000000000081525084612119565b611f826040518060400160405280600f81526020017f746f6b656e5f72657365727665733a0000000000000000000000000000000000815250600454612119565b3373ffffffffffffffffffffffffffffffffffffffff166108fc839081150290604051600060405180830381858888f19350505050158015611fc8573d6000803e3d6000fd5b50505050505050565b600080600b54600c54915091509091565b611fea6122f2565b600073ffffffffffffffffffffffffffffffffffffffff168173ffffffffffffffffffffffffffffffffffffffff1603612059576040517f08c379a0000000000000000000000000000000000000000000000000000000008152600401612050906134cf565b60405180910390fd5b61206281612370565b50565b600180546120729061351e565b80601f016020809104026020016040519081016040528092919081815260200182805461209e9061351e565b80156120eb5780601f106120c0576101008083540402835291602001916120eb565b820191906000526020600020905b8154815290600101906020018083116120ce57829003601f168201915b505050505081565b600360009054906101000a900473ffffffffffffffffffffffffffffffffffffffff1681565b6121b1828260405160240161212f92919061354f565b6040516020818303038152906040527fb60e72cc000000000000000000000000000000000000000000000000000000007bffffffffffffffffffffffffffffffffffffffffffffffffffffffff19166020820180517bffffffffffffffffffffffffffffffffffffffffffffffffffffffff8381831617835250505050612434565b5050565b60098054905081106121fc576040517f08c379a00000000000000000000000000000000000000000000000000000000081526004016121f3906135f1565b60405180910390fd5b600960016009805490506122109190612903565b8154811061222157612220612d13565b5b9060005260206000200160009054906101000a900473ffffffffffffffffffffffffffffffffffffffff16600982815481106122605761225f612d13565b5b9060005260206000200160006101000a81548173ffffffffffffffffffffffffffffffffffffffff021916908373ffffffffffffffffffffffffffffffffffffffff16021790555060098054806122ba576122b9613611565b5b6001900381819060005260206000200160006101000a81549073ffffffffffffffffffffffffffffffffffffffff0219169055905550565b6122fa61244e565b73ffffffffffffffffffffffffffffffffffffffff166123186115cf565b73ffffffffffffffffffffffffffffffffffffffff161461236e576040517f08c379a00000000000000000000000000000000000000000000000000000000081526004016123659061368c565b60405180910390fd5b565b60008060009054906101000a900473ffffffffffffffffffffffffffffffffffffffff169050816000806101000a81548173ffffffffffffffffffffffffffffffffffffffff021916908373ffffffffffffffffffffffffffffffffffffffff1602179055508173ffffffffffffffffffffffffffffffffffffffff168173ffffffffffffffffffffffffffffffffffffffff167f8be0079c531659141344cd1fd0a4f28419497f9722a3daafe3b4186f6b6457e060405160405180910390a35050565b61244b81612443612456612477565b63ffffffff16565b50565b600033905090565b60006a636f6e736f6c652e6c6f679050600080835160208501845afa505050565b612482819050919050565b61248a6136ac565b565b6000819050919050565b61249f8161248c565b82525050565b60006040820190506124ba6000830185612496565b6124c76020830184612496565b9392505050565b600080fd5b6124dc8161248c565b81146124e757600080fd5b50565b6000813590506124f9816124d3565b92915050565b600060208284031215612515576125146124ce565b5b6000612523848285016124ea565b91505092915050565b60008060408385031215612543576125426124ce565b5b6000612551858286016124ea565b9250506020612562858286016124ea565b9150509250929050565b600080600060608486031215612585576125846124ce565b5b6000612593868287016124ea565b93505060206125a4868287016124ea565b92505060406125b5868287016124ea565b9150509250925092565b600073ffffffffffffffffffffffffffffffffffffffff82169050919050565b60006125ea826125bf565b9050919050565b6125fa816125df565b82525050565b600060208201905061261560008301846125f1565b92915050565b612624816125df565b811461262f57600080fd5b50565b6000813590506126418161261b565b92915050565b60006020828403121561265d5761265c6124ce565b5b600061266b84828501612632565b91505092915050565b600081519050919050565b600082825260208201905092915050565b60005b838110156126ae578082015181840152602081019050612693565b60008484015250505050565b6000601f19601f8301169050919050565b60006126d682612674565b6126e0818561267f565b93506126f0818560208601612690565b6126f9816126ba565b840191505092915050565b6000602082019050818103600083015261271e81846126cb565b905092915050565b6000819050919050565b600061274b612746612741846125bf565b612726565b6125bf565b9050919050565b600061275d82612730565b9050919050565b600061276f82612752565b9050919050565b61277f81612764565b82525050565b600060208201905061279a6000830184612776565b92915050565b7f45544820616d6f756e74206d7573742062652067726561746572207468616e2060008201527f3000000000000000000000000000000000000000000000000000000000000000602082015250565b60006127fc60218361267f565b9150612807826127a0565b604082019050919050565b6000602082019050818103600083015261282b816127ef565b9050919050565b7f4e487b7100000000000000000000000000000000000000000000000000000000600052601160045260246000fd5b600061286c8261248c565b91506128778361248c565b92508282026128858161248c565b9150828204841483151761289c5761289b612832565b5b5092915050565b7f4e487b7100000000000000000000000000000000000000000000000000000000600052601260045260246000fd5b60006128dd8261248c565b91506128e88361248c565b9250826128f8576128f76128a3565b5b828204905092915050565b600061290e8261248c565b91506129198361248c565b925082820390508181111561293157612930612832565b5b92915050565b60006129428261248c565b915061294d8361248c565b925082820190508082111561296557612964612832565b5b92915050565b7f496e73756666696369656e74206c697175696469747920696e2074686520706f60008201527f6f6c000000000000000000000000000000000000000000000000000000000000602082015250565b60006129c760228361267f565b91506129d28261296b565b604082019050919050565b600060208201905081810360008301526129f6816129ba565b9050919050565b7f536c6970706167653a2045786368616e6765207261746520746f6f2068696768600082015250565b6000612a3360208361267f565b9150612a3e826129fd565b602082019050919050565b60006020820190508181036000830152612a6281612a26565b9050919050565b7f496e73756666696369656e7420746f6b656e2072657365727665730000000000600082015250565b6000612a9f601b8361267f565b9150612aaa82612a69565b602082019050919050565b60006020820190508181036000830152612ace81612a92565b9050919050565b6000604082019050612aea60008301856125f1565b612af76020830184612496565b9392505050565b60008115159050919050565b612b1381612afe565b8114612b1e57600080fd5b50565b600081519050612b3081612b0a565b92915050565b600060208284031215612b4c57612b4b6124ce565b5b6000612b5a84828501612b21565b91505092915050565b7f4e6f742061206c69717569646974792070726f76696465720000000000000000600082015250565b6000612b9960188361267f565b9150612ba482612b63565b602082019050919050565b60006020820190508181036000830152612bc881612b8c565b9050919050565b7f496e73756666696369656e742045544820726573657276657300000000000000600082015250565b6000612c0560198361267f565b9150612c1082612bcf565b602082019050919050565b60006020820190508181036000830152612c3481612bf8565b9050919050565b7f496e73756666696369656e7420546f6b656e7320726573657276657300000000600082015250565b6000612c71601c8361267f565b9150612c7c82612c3b565b602082019050919050565b60006020820190508181036000830152612ca081612c64565b9050919050565b7f536c6970706167653a2045786368616e6765207261746520746f6f206c6f7700600082015250565b6000612cdd601f8361267f565b9150612ce882612ca7565b602082019050919050565b60006020820190508181036000830152612d0c81612cd0565b9050919050565b7f4e487b7100000000000000000000000000000000000000000000000000000000600052603260045260246000fd5b6000612d4d8261248c565b91507fffffffffffffffffffffffffffffffffffffffffffffffffffffffffffffffff8203612d7f57612d7e612832565b5b600182019050919050565b7f546f6b656e20726573657276657320776173206e6f7420300000000000000000600082015250565b6000612dc060188361267f565b9150612dcb82612d8a565b602082019050919050565b60006020820190508181036000830152612def81612db3565b9050919050565b7f45544820726573657276657320776173206e6f7420302e000000000000000000600082015250565b6000612e2c60178361267f565b9150612e3782612df6565b602082019050919050565b60006020820190508181036000830152612e5b81612e1f565b9050919050565b7f4e6565642065746820746f2063726561746520706f6f6c2e0000000000000000600082015250565b6000612e9860188361267f565b9150612ea382612e62565b602082019050919050565b60006020820190508181036000830152612ec781612e8b565b9050919050565b600081519050612edd816124d3565b92915050565b600060208284031215612ef957612ef86124ce565b5b6000612f0784828501612ece565b91505092915050565b7f4e6f74206861766520656e6f75676820746f6b656e7320746f2063726561746560008201527f2074686520706f6f6c0000000000000000000000000000000000000000000000602082015250565b6000612f6c60298361267f565b9150612f7782612f10565b604082019050919050565b60006020820190508181036000830152612f9b81612f5f565b9050919050565b7f4e65656420746f6b656e7320746f2063726561746520706f6f6c2e0000000000600082015250565b6000612fd8601b8361267f565b9150612fe382612fa2565b602082019050919050565b6000602082019050818103600083015261300781612fcb565b9050919050565b600060608201905061302360008301866125f1565b61303060208301856125f1565b61303d6040830184612496565b949350505050565b7f547279696e6720746f207769746864726177206d6f7265207468616e206f776e60008201527f6564000000000000000000000000000000000000000000000000000000000000602082015250565b60006130a160228361267f565b91506130ac82613045565b604082019050919050565b600060208201905081810360008301526130d081613094565b9050919050565b7f4e6f7420656e6f75676820736861726573000000000000000000000000000000600082015250565b600061310d60118361267f565b9150613118826130d7565b602082019050919050565b6000602082019050818103600083015261313c81613100565b9050919050565b7f43616e6e6f7420656d7074792045544820726573657276657300000000000000600082015250565b600061317960198361267f565b915061318482613143565b602082019050919050565b600060208201905081810360008301526131a88161316c565b9050919050565b7f43616e6e6f7420656d70747920746f6b656e2072657365727665730000000000600082015250565b60006131e5601b8361267f565b91506131f0826131af565b602082019050919050565b60006020820190508181036000830152613214816131d8565b9050919050565b7f536c69707061676520746f6f2068696768000000000000000000000000000000600082015250565b600061325160118361267f565b915061325c8261321b565b602082019050919050565b6000602082019050818103600083015261328081613244565b9050919050565b7f536c69707061676520746f6f206c6f7700000000000000000000000000000000600082015250565b60006132bd60108361267f565b91506132c882613287565b602082019050919050565b600060208201905081810360008301526132ec816132b0565b9050919050565b7f496e73756666696369656e7420746f6b656e2062616c616e6365000000000000600082015250565b6000613329601a8361267f565b9150613334826132f3565b602082019050919050565b600060208201905081810360008301526133588161331c565b9050919050565b7f5a65726f204c5020736861726573000000000000000000000000000000000000600082015250565b6000613395600e8361267f565b91506133a08261335f565b602082019050919050565b600060208201905081810360008301526133c481613388565b9050919050565b7f616d6f756e74546f6b656e73206d75737420626520677265617465722074686160008201527f6e20300000000000000000000000000000000000000000000000000000000000602082015250565b600061342760238361267f565b9150613432826133cb565b604082019050919050565b600060208201905081810360008301526134568161341a565b9050919050565b7f4f776e61626c653a206e6577206f776e657220697320746865207a65726f206160008201527f6464726573730000000000000000000000000000000000000000000000000000602082015250565b60006134b960268361267f565b91506134c48261345d565b604082019050919050565b600060208201905081810360008301526134e8816134ac565b9050919050565b7f4e487b7100000000000000000000000000000000000000000000000000000000600052602260045260246000fd5b6000600282049050600182168061353657607f821691505b602082108103613549576135486134ef565b5b50919050565b6000604082019050818103600083015261356981856126cb565b90506135786020830184612496565b9392505050565b7f73706563696669656420696e646578206973206c6172676572207468616e207460008201527f6865206e756d626572206f66206c707300000000000000000000000000000000602082015250565b60006135db60308361267f565b91506135e68261357f565b604082019050919050565b6000602082019050818103600083015261360a816135ce565b9050919050565b7f4e487b7100000000000000000000000000000000000000000000000000000000600052603160045260246000fd5b7f4f776e61626c653a2063616c6c6572206973206e6f7420746865206f776e6572600082015250565b600061367660208361267f565b915061368182613640565b602082019050919050565b600060208201905081810360008301526136a581613669565b9050919050565b7f4e487b7100000000000000000000000000000000000000000000000000000000600052605160045260246000fdfea2646970667358221220a9da9b8f62a5913503584c26c5c1fea1db791522432a64eb5e62857ead1d52c864736f6c63430008110033",
  "linkReferences": {},
  "deployedLinkReferences": {}
}